:020000040800F2
:1000000058110020DD490008ED490008EF490008BB
:10001000F1490008F3490008F54900080000000014
:10002000000000000000000000000000F949000886
:10003000F749000800000000FB490008071300080A
:10004000014A0008054A0008094A00080D4A00084C
:10005000114A0008154A0008194A00081D4A0008FC
:10006000B7030008D3030008214A0008254A000806
:10007000294A00082D4A0008314A0008354A00087C
:10008000394A00083D4A0008414A0008454A00082C
:10009000494A00084D4A0008514A0008FB30000850
:1000A000554A0008594A00085D4A0008614A00089C
:1000B000654A0008694A00086D4A0008714A00084C
:1000C000754A0008794A00087D4A0008814A0008FC
:1000D000854A00080D3E0008273E00085F3E0008E4
:1000E000152D0008894A00088D4A0008914A000829
:1000F000954A0008994A00089D4A0008A14A00084C
:10010000A54A0008A94A0008AD4A0008B14A0008FB
:10011000B54A0008B94A0008BD4A0008C14A0008AB
:10012000C54A0008C94A0008CD4A0008D14A00085B
:1001300080B5ADF800108DF802308DF803206946C7
:1001400057E20B4600281146184608BF00F097B842
:10015000DDE010B588B001214FF4006000F04CFBE9
:100160000121012000F048FB0121402000F044FB68
:100170000121DFF8A405DFF8A44500F0E1FB00F061
:1001800095F94FF434701021ADF800008DF803108C
:1001900003228DF802206946204600F06FFBDFF84D
:1001A00080054FF4804101614FF40052026110213B
:1001B0008DF8031003224FF4C0438DF80220ADF8F0
:1001C0000030694600F05AFB4FF400706061102166
:1001D0006161402060618021616142F20F72ADF87F
:1001E000082000210191ADF80A1001A9DFF834457B
:1001F000204600F0B7FC7021ADF810100122ADF8D8
:10020000122042F21071ADF816100222ADF818203B
:1002100004A9204600F09AFD0821204600F0F9FDCF
:1002200004A9204600F05AFD0821204600F0EAFD0E
:100230000121204600F0C0FD0121204600F0C7FD4D
:100240000121204600F0AEFD0021002000F017F84B
:100250000021002000F05BF8DFF8CC44082104F115
:100260002C0000F001FE082104F13C0000F0FCFD30
:10027000082104F1440000F0F7FD08B010BD2DE99D
:10028000F843DFF8A49400F08AF899F800000C46CF
:1002900048BF6D42A0424FF4007709D04FF480412F
:1002A00000F083F8142000F01DFE776010207060CD
:1002B000002C14BF032C002542F2107002D085429E
:1002C000C8BF0546DFF86414401B012C088006D027
:1002D0000CD3032C01D006D308E0376004E01021D2
:1002E0007160376002E0776010203060002D1CBF25
:1002F00099F80000A04206D0032318224FF4804151
:100300004046FFF715FF89F80040BDE8F1832DE96D
:10031000F041DFF8147400F042F878780C4648BFDA
:100320006D42A0420AD04FF4005100F03EF8142074
:1003300000F0D8FD4020706080217160002C14BF57
:10034000032C002542F2107002D08542C8BF05463A
:10035000DFF8DC13401B012C088009D010D3032CDC
:1003600001D009D30CE0802030604022326007E0E9
:1003700040217160802002E0802171604020306067
:10038000002D1CBF7878A04206D0032318224FF41A
:1003900000514046FFF7CCFE7C70BDE8F081DFF8ED
:1003A0009463DFF87C8305007047C8F810100323BE
:1003B00010224046BCE680B5042000F0D6FD38B1DE
:1003C000042000F0DDFDDFF860038169491C8161D4
:1003D00001BD80B5082000F0C8FD38B1082000F04C
:1003E000CFFDDFF844034169491C416101BD1FB5E0
:1003F000DFF834430821201D00F036FD082104F108
:100400000C0000F031FD082104F1340000F02CFD57
:10041000082104F1140000F027FD082104F11C005C
:1004200000F022FD082104F1240000F01DFD01214F
:10043000012000F0E1F900F039F803200C218DF8DB
:100440000E00ADF80C1048228DF80F2003A9B34818
:1004500000F014FA0221032000F09BFA032103208C
:1004600000F097FA042100F025F8082100F022F8A6
:10047000082102228DF800108DF8012000210122B0
:100480008DF802108DF80320684600F086FD0921E2
:100490008DF80010022201218DF801208DF8021044
:1004A0008DF80310684600F078FD1FBD0121202063
:1004B00000F0A2B9002201918DF80820102101223C
:1004C0008DF809108DF80A2001A800F01DBD96488E
:1004D000C068704794480069704780B59249486881
:1004E00000224A6004E080B58F49886800228A6053
:1004F00000F088FDBDE804408F4900F091BD2DE972
:10050000F04E0025884C04EB8506F26A002A0CD0D8
:10051000605DD6F82490CCBF0127022787420AD01D
:100520004846864900F0E8FD02D8032200213BE05E
:100530000020F0637064100048BF404200F0F0FDFE
:10054000494600F06FFEF16B834600F06BFE81467A
:10055000706C594600F0F6FD8246C6F844A0C6F815
:100560003CB05946764800F05BFD0646754851465A
:1005700000F056FD314600F0E5FD064600204946F4
:1005800000F04EFD314600F0DDFD6F4900F0B4FD96
:1005900098BF6E4804D9002100F08CFE38BF0020BF
:1005A00000F09CFE01463A462846FFF7CAFD6D1C46
:1005B000012DA8D9BDE8F08E5B4AD0621163704767
:1005C00080B503210020FFF75AFEBDE80440032157
:1005D00000209CE680B5FFF769FF40F20241ADF8CC
:1005E0000010012248218DF803108DF80220694681
:1005F0004A4800F043F901BD10B5484C022120469D
:1006000000F08EF928B14FF48061204600F088F99F
:1006100008B9002010BD012010BD38B54C484D4C24
:100620004FF4807141610125656103231022FFF7BA
:100630007FFD204601B0BDE8304003231022012198
:1006400076E52DE9F84F00F06EFE374F0090FC6C18
:10065000041B102C4AD3F864EFF3108072B679694A
:10066000F96100227A61B9693962BA6180F3108850
:10067000002507EB85066D1CD6F81CB0584600F027
:10068000C1FC00F091FE344A344B00F0B1FE00F0A2
:1006900085FF824600F088FE0022314B00F0A8FE64
:1006A00080468946204600F0ADFF02460B46404694
:1006B000494600F0B5FF00F071FF70625146706B63
:1006C00000F040FD824601F0CFF8F1684118F1607A
:1006D00000F098FC0146504600F0A4FD7063012D27
:1006E000706858447060C4DDFFF709FF0099386DE9
:1006F000091AB1F57A7F0CD300983865FFF77CFFB3
:1007000038B9BDE8F84F022250214FF47A6001F069
:100710004EB9BDE8F18F0000C00016000014014082
:1007200000180140002C01403C0C0020402C0140EE
:100730003C2C0140101401401A40203E0100803F33
:100740000000C8410000C04001401C4600401C465B
:1007500000100140000C01408F647B340308C43F4B
:1007600000408F401043086070473A490A6822F4FD
:100770004042F7E770B53749374A0B6803F00C037E
:10078000082B09D10B680D68344CC3F383439B1CC1
:100790005C43ED0321D4224602600B68304A0468B2
:1007A000C3F30313D35CDC4044600B684468C3F3B9
:1007B0000223D35CDC4084600B684468C3F3C2232B
:1007C000D35CDC40C4600968C368C1F38131114463
:1007D000097CB3FBF1F1016170BD0D68AE03DAD4A1
:1007E0005A43D9E71F4A002919BF11680843136803
:1007F00023EA0000106070471B4A002919BF1168E6
:100800000843136823EA000010607047174A002964
:1008100019BF11680843136823EA0000106070478D
:10082000134A002919BF11680843136823EA00001E
:10083000106070470F4A002919BF116808431368F8
:1008400023EA0000106070470B48016841F0807196
:10085000016070470410024000127A0000093D0058
:100860006400002014100240181002401C100240C6
:100870000C10024010100240241002402DE9F041FB
:10088000CA78002602F00F03D40644BF8A781343C7
:100890000A8801244FF00F08D7B2E7B1076804FABD
:1008A00006FC0CEA0205654511D14FEA860E08FAEE
:1008B0000EF5AF4303FA0EF52F43CD78282D08BF70
:1008C000C0F814C003D0482D08BFC0F810C0761C73
:1008D000082EE4D30760B2F5807F1FDB476800264F
:1008E00006F1080504FA05FC0CEA0205654511D17C
:1008F0004FEA860E08FA0EF5AF4303FA0EF52F43C2
:10090000CD78282D08BFC0F814C0CD78482D08BF79
:10091000C0F810C0761C082EE2D34760BDE8F08115
:100920000246002092680A4218BF01207047016108
:100930007047416170470AB101617047416170477A
:10094000F0B51C4B00284CBF9C691C68470D86B253
:100950003A01964000F44012B2F5401FC0F303453F
:1009600006D11A6822F0706224F070641A6008E000
:10097000C20243BF032707FA05F5AC43B44344F072
:10098000706401B13443002801D59C61F0BD1C6046
:10099000F0BD70B5084B8A0021F0030102F00C0293
:1009A0005C580F259540AC435C5090405E583043F6
:1009B000585070BD040001400800014080B5DFF8C8
:1009C0006814884208D101214FF40060FFF728FF26
:1009D00000214FF40060C0E0B0F1804F06D101214A
:1009E0000120FFF727FF002101208CE0DFF83C14F5
:1009F000884206D101210220FFF71CFF00210220BE
:100A000081E0DFF82C14884206D101210420FFF791
:100A100011FF0021042076E0DFF81814884206D187
:100A200001210820FFF706FF002108206BE0DFF816
:100A30000814884206D101211020FFF7FBFE002197
:100A4000102060E0DFF8F413884206D10121202055
:100A5000FFF7F0FE0021202055E0DFF8E413884284
:100A600008D101214FF40050FFF7DAFE00214FF4C6
:100A7000005072E0DFF8CC13884208D101214FF416
:100A80000020FFF7CDFE00214FF4002065E0DFF8E5
:100A9000B813884208D101214FF48010FFF7C0FE3F
:100AA00000214FF4801058E0DFF8A013884208D1ED
:100AB00001214FF40010FFF7B3FE00214FF40010A6
:100AC0004BE0DFF88C13884206D101214020FFF76C
:100AD000B1FE0021402016E0DFF87813884206D1ED
:100AE00001218020FFF7A6FE002180200BE0DFF827
:100AF000681388420BD101214FF48070FFF79AFEF2
:100B000000214FF48070BDE80440FFF793BEDFF88A
:100B10004C13884208D101214FF48030FFF780FE4A
:100B200000214FF4803018E0DFF83413884208D1F8
:100B300001214FF40030FFF773FE00214FF4003025
:100B40000BE0DFF8201388420BD101214FF4802005
:100B5000FFF766FE00214FF48020BDE80440FFF758
:100B60005FBE01BD70B5DFF8C052DFF8D442068821
:100B7000A84218BFA0420ED0B0F1804F1CBFDFF8D2
:100B8000AC22904207D0DFF8A83298421CBFDFF8B1
:100B9000A422904204D14FF68F734A881E40164318
:100BA000DFF8943298421CBFDFF89022904204D0C4
:100BB0004FF6FF43CA881E4016430680A8428B8822
:100BC000838518BFA0420A8802850AD0DFF88C32DC
:100BD00098421FBFDFF888229042DFF8883298429F
:100BE00001D1097A01860122828270BDF0B5038CA1
:100BF0004FF6FE72134003844FF68C73078C858882
:100C0000068B0C884FF6FD721E400B8917404A88F0
:100C100026431F431743DFF81042A0421CBFDFF8F2
:100C2000203298420AD0DFF8342290421FBFDFF80A
:100C300030329842DFF82C22904210D14FF6F774F0
:100C40004A89274017434FF6FF424FF6FB738C88C3
:100C50001540CA891F408B891D4327431543858052
:100C60000683C98881860784F0BDF0B5038C4FF6F2
:100C7000EF72134003844FF6DF72068C8488058B75
:100C80000F8816404A8848F6FF431D400B891343DE
:100C900046EA0316DFF8903145EA072598421CBF63
:100CA000DFF89C71B84213D14FF67F724B89164022
:100CB00046EA03164FF6BF728B8816404FF2FF329A
:100CC00046EA031614408B89CA89134344EA830415
:100CD00084800583C98801870684F0BDF0B5038C44
:100CE0004FF6FF62134003844FF6FF52078C85884E
:100CF000868B0B884FF68C74174026400C894A88E7
:100D00001E431443DFF8203147EA042798421CBFF2
:100D1000DFF82C41A04213D14FF2FF724B891740EC
:100D200047EA03274FF6FF328B8817404CF6FF72D5
:100D300047EA032715408B89CA89134345EA0315FF
:100D400085808683C98881870784F0BDF0B5038CD0
:100D50004EF6FF72134003844DF6FF72048C8588B3
:100D6000868B0F8814404A8848F6FF431E400B8943
:100D7000134344EA0334DFF8B03046EA07269842CA
:100D80001CBFDFF8BC70B84205D14BF6FF728B89EF
:100D9000154045EA831585808683C988A0F84010F0
:100DA0000484F0BD21B1018841F001010180704748
:100DB00002884FF6FE7113E00029B0F8441014BF0A
:100DC00041F40041C1F30E01A0F84410704721B175
:100DD000018841F080010180704702884FF67F71E1
:100DE0000A4002807047038B4FF6F7721340194395
:100DF00001837047038B4FF2FF72134043EA0123D4
:100E000003837047838B4FF6F77213401943818336
:100E10007047838B4FF2FF72134043EA01238383B1
:100E20007047808C70470000002C01400004004097
:100E300000080040000C004000100040001400407A
:100E400000340140004C014000500140005401407A
:100E500000180040001C00400020004000400140FD
:100E60000044014000480140002200F0CDBD30B5F3
:100E7000016884684218416802EB5103C90703D531
:100E80004C4401E0491C08D19A4218BF12F9011BD9
:100E900001D10C3030BD12F8015B002904F8015B70
:100EA000F0D4491EF7D5EFE738B500F03FFA044615
:100EB000134800900D460098411E00280091FAD179
:100EC00000F034FA021B71EB050302BF002A012275
:100ED00000230B48002100F0A1FD00B901200949C1
:100EE000086031BD01B481B0064A019910684143E0
:100EF00000910098411E00280091FAD102B070477D
:100F000020A107006000002060B5026881791E4BB7
:100F1000D24321B31D682A401A605A6801688A4387
:100F20005A60017959180D68026815430D609E6872
:100F300001688E439E60DA6801688A43DA6041790D
:100F40000268102907D199680A439A60DA68006834
:100F50000243DA6060BD5B1819680A4303E0007958
:100F60001B1819680A401A6060BD074B19685B6955
:100F700002460020114013421CBF00290120704787
:100F800000BF02490860704700040140140401409A
:100F90001749184A084310607047F0B50378C178C4
:100FA0001C460122D9B113490B684578867803F4B1
:100FB000E063C3F5E0631B0A0F27C3F10401DF40C0
:100FC0008D403E4035430C490C4B2D010D550178A9
:100FD00001F01F008240490943F82120F0BD03F0D1
:100FE0001F03074802FA03F3640940F82430F0BDF8
:100FF0000000FA050CED00E000E400E000E100E094
:1010000080E100E050B1B0FA80F18840C1F19D016B
:10101000C905020672F1004241EB10207047000042
:10102000FF2212EAD05C1DBF12EAD15394459342CD
:101030002BE09C44D30780EA010243EA002043EA04
:1010400001211A40A1FB0030C04238BF00187CF1DA
:101050007F010BDBFE294ADA5B0842EAC15153EA01
:10106000006373F1004C51EB10207047D1F1080C74
:10107000DCF120012FDB5B0810FA01F10B4320FAB1
:101080000CF073F100415041704794451CBF02EAD7
:10109000D153934280EA010202F000421DD0400089
:1010A00019D0490017D05BB9634514D00902B1FAD1
:1010B00081F39940BCEB030CC00140F00040C1E754
:1010C0000002B0FA80FC10FA0CF0B3EB0C0CC90172
:1010D00041F00041B6E71000704740000AD04900D7
:1010E00008D010F1807F94BF11F1807F02E042F0C0
:1010F000FF407047D043704740EA010C1CEB0C0FD7
:101100004FF0807C07D305D01CEB400F9CBF1CEB3D
:10111000410F884270471CEB400F98BF81427047D7
:1011200010F0004C68B148BF4042B0FA80F18840EE
:10113000D1F19D014CEAC15C010671F100414CEB1B
:101140001020704790EA010F40F1728081F0004159
:10115000431A4FF000423EBF5340C01AC918D3098A
:101160005FEAD05C13EB400F34BFB3EB410F40E0BC
:101170007CEBD1530CD342EA012122D8D1EB4020A1
:1011800009D3400A28BF5FEA500140EBCC507047BA
:10119000401A15D04002B0FA80F2521C9040400A2A
:1011A0004FEA3C23B3EB026384BF00EB730007E01C
:1011B00040F400001A16DB07C2F10102D0401843C8
:1011C0007047182BFCDC31FA03F202FA03F3591AC8
:1011D00038BF42F00102D2EB40203CBF0018ACF116
:1011E000010C5FEACC5CC20572F100414CEB50206F
:1011F000704713EB400F0FD2C94209D0ACEBD1536B
:10120000022B03DB4902172BDDDD70479143401AA7
:10121000C042D5D10020704713EB410FD0D36FF0FF
:101220000000704790EA010F7FF592AF81F0004116
:10123000421A3CBF801A8918C0F3C752FF2A4FF0E8
:10124000004C22D0C1F3C7534BB3D21AD2F11903C9
:101250002EDD4CEA01214CFA03F321EA0303D140CD
:101260004CEA00226FF3160052180FD353EAC25310
:101270004CEA520273EB0C0C50EB1220420012F1BC
:10128000807F38BF70476FF31600704753EA0263E0
:1012900022EA0C0273EB0C0C50EB1220704749024F
:1012A00012BF9A4200EB5120EFE7D2F11703D2D5DB
:1012B0007047000040EA010C1CEB0C0F4FF0807CE3
:1012C00007D305D01CEB400F9CBF1CEB410F8142A4
:1012D00070471CEB410F98BF88427047C0F3C7515D
:1012E000D1F19E0108DD020242F00042CA4002EB49
:1012F000E07282EAE07070477FEAE07080F00040C0
:1013000070470000FEE722484168491C4160704771
:101310001F490120087070471D4900200870704760
:101320001C49086070471A484068704770B5EFF371
:10133000108072B61649184C4A6818490B6825681F
:101340006E0144BF521C0B6880F31088144D4FF49B
:101350007A74EB1A63431348B3FBF0F00021E4FB0B
:10136000020170BD10B510290CBF072305230446E8
:10137000012200F011FC2046BDE81040012100F0E0
:10138000F0BBFFE76FF002010160C06C80B27047F4
:10139000440D00202800002004ED00E018E000E0EB
:1013A0003F19010040190100C0F3C75181B1FF2965
:1013B00006D0C110400721F0E04101F160517047B3
:1013C00041020CBF40F4E0016FF000410020704783
:1013D00000F0004100020AD0B0FA80FC00FA0CF0E4
:1013E00001F16051A1EB0C5101EBD0214005704798
:1013F00030B540F2FF7C1CEA11541DBF1CEA1355A6
:10140000644565453FE0641981EA030C6FF35F535F
:101410000CF0004C43F48013C90241F0004141EA52
:10142000505EC5021100A5FB020200284FF000002B
:10143000EEFB01204FF00001E3FB052118BF42F055
:101440000102401800214941E3FB0E01A4F580642C
:101450000D0302D292184041494154F1010470DD5C
:10146000450872F1004250F1000051EB0451A1F522
:10147000801102D441EA0C0130BD40F2FF7E4CEAFB
:101480000E51002030BD0CEA1355644518BF654568
:1014900081EA030C0CF0004C41D050EA410E1CBF15
:1014A00052EA430E02E06146002030BD24422C4443
:1014B0001BD15FEA050EF6D0090302BF01460020EA
:1014C000AEF1140EB1FA81F5AEEB050401FA05FE9A
:1014D0000C35C5F1200100FA05F5C8404EEA000EB2
:1014E0006FF35F5343F480139CE733F00043B3FA88
:1014F00083F504BFB2FA82FE75440B3D641BB5F15F
:10150000200E2FBF02FA0EF3AB40C5F1200E22FAD7
:101510000EFE38BF43EA0E03AA40641C7CE750EA83
:10152000410E14BF52EA430E6FF000014FF4001554
:1015300015EB430F8EBF194615EB410F9DE7B4D84D
:1015400030BDD4F10104B4F120050FDAC4F1200557
:10155000520828BF42F0010210FA05FE01FA05F513
:101560007244E2BFE0402843E1400FE0352C9ADCB2
:10157000C5F1200452EA400220FA05F218BF42F0F9
:10158000010231FA05F0A1400A43002172F1004244
:1015900050F1000051EB0C0130BD000001F00042A1
:1015A0008B1AA3F16051B1F5801F0ADBB1F17F6F97
:1015B0001FD242EAC102C10071F1004142EB5070FA
:1015C00070470B15C3F10903212B10D2890241EAA0
:1015D000905180020128494141F0004121FA03F075
:1015E000C3F12003994071F1004150417047100050
:1015F00070476FF0000013EB103F5CBF000E42EA33
:10160000C050704750B1B0FA80F18840C91CC1F594
:101610008461090501EBD021400570470146704700
:10162000F0B540F2FF7581EA030C0CF0004C15EAAE
:1016300011541DBF15EA1357AC42AF42E5E0BC415F
:10164000C1F31301C3F31303801A994143F48013C8
:1016500004D2641E0018494180185941C90241EA68
:101660005051B1FBF3F603FB1611A2FB0675D7EB45
:10167000C020A94102D2761E80185941C90241EA10
:101680005051B1FBF3FE03FB1E11A2FB0E75D7EB0D
:10169000C020A94103D2AEF1010E80185941890240
:1016A00041EA9051760546EA8E2EB1FBF3F603FB34
:1016B0001611A2FB0675D7EB8020A94102D2761E37
:1016C00080185941C90241EA50514EEA060EB1FB59
:1016D000F3F603FB1611A2FB0675D7EBC020A94158
:1016E00002D2761E80185941C90241EA5051B1FB1D
:1016F000F3F703FB1711A2FB0735D3EBC020A94179
:1017000067F100070CBF004247F0010766F3D527D9
:101710004FEA1E31B80814F5806412DDBD0775F17B
:10172000004250EB0E5051EB045111F5801F5CBF8D
:1017300041EA0C01F0BD4CF07F6141F0E041002036
:10174000F0BDBD076D0840EA0E5041F48011D4F1A0
:101750000104B4F120060ADAC4F120060200E040D8
:1017600001FA06F3E1401843B24015430EE0342C71
:1017700013DCC6F1200445EA40056D0820FA06F2A4
:10178000154321FA06F0A1400D43002175F10042F6
:1017900050F1000051EB0C01F0BD00205FEA0C019C
:1017A000F0BDCFB992185B41B3FA83F704BFB2FA28
:1017B00082F6BF190B3FB7F120062FBF02FA06F3DE
:1017C000BB40C7F1200622FA06F638BF3343BA40C1
:1017D0001CB1E419641E33E77F4231F00041B1FAD5
:1017E00081F404BFB0FA80F6A4190B3CB4F12006D2
:1017F0002FBF00FA06F1A140C4F1200620FA06F638
:1018000038BF3143A0403C1B1AE7AC421ABF05EA7F
:101810001357AF4212E050EA41061CBF52EA43069A
:10182000BFE750EA4107304661461CBF41EA055117
:10183000F0BD52EA430C08BFC143F0BD00204FF495
:10184000001616EB410F98BF16EB430F08BF16EBBF
:10185000410F24BFC14305E016EB430F0CBF6146A7
:101860004CEA0551F0BD0000C10DD1F19E0104D438
:10187000000240F00040C84070476FEAE0707047D7
:1018800010B5044603E04FF47A70FFF72BFB2046B7
:10189000441E0028F7D110BD80B588B00121012079
:1018A000FEF7B4FF01210420FEF7A6FF012101206D
:1018B000FEF7A2FF01214E48FFF742F801214D48F3
:1018C000FFF73EF84FF400401821ADF800008DF806
:1018D000031003228DF8022000F048F8FF21ADF834
:1018E0000810B3220021ADF80A10ADF80610ADF8CB
:1018F000042001A94FF08040FFF734F90122ADF830
:101900001220ADF816207021ADF810100022ADF8AD
:10191000182004A94FF08040FFF768F901214FF02B
:101920008040FFF749FA08214FF08040FFF75BFA4B
:1019300001214FF08040FFF74AFA01214FF080402B
:10194000FFF730FA09B000BD80B50320182102E08E
:1019500080B5032010218DF802008DF803104FF49C
:101960000042ADF8002000F001F801BD69462248B0
:10197000FEF784BF10B5FFF7EBFF204CB3202080AB
:10198000FFF7E2FF4FF4FA70FFF77AFFFFF7E0FF8F
:101990004FF44870FFF774FFB3202080FFF7D4FFA7
:1019A0004FF4FA70FFF76CFFBDE81040D0E770B558
:1019B000134E316004461546FFF7B5FC7060FFF723
:1019C000C7FF0E480F498581B1FBF4F10180BDE8E6
:1019D0007040B9E780B5FFF7A6FC09490A68496875
:1019E000401A824202D2BDE80140B1E701BD0000C9
:1019F00000023000000318000008014028000040E9
:101A00003C0D0020A24A04004018491C1CBFB1F143
:101A1000010100F8012DF9D170470000D3BBD9B105
:101A2000B2F5803F5BD2022A1ED98C46B1FBF2F19F
:101A300002FB11C31B0443EA1043B3FBF2FC02FB9D
:101A40001C3380B240EA0343B3FBF2F002FB1032D6
:101A500040EA0C4000237047022A05D98446B0FBB7
:101A6000F2F002FB10C270474AB105D100F001024A
:101A700049085FEA3000704700220023704700F0F9
:101A8000DDB80B000200002100207047F7D30022D0
:101A900000237047904271EB030CF2D370B5B1FA9A
:101AA00081F4B3FA83F52C1BA340C4F1200532FA6C
:101AB00005F63343A2405FF00046E64002E05B08D3
:101AC0005FEA3202841A71EB030524BF20462946DF
:101AD0007641F4D302000B003000002170BD70B5D8
:101AE000B1FA81F4B2FA82F5C4F120046419B4F1B8
:101AF0002006DAD3B2405FF00044F440002502E053
:101B000052085FEA3303C61A71EB020E24BF304657
:101B1000714664416D41F3D302000B00200029009F
:101B200070BD000030B54468414B0A680D791C4017
:101B3000144344EA052444603E4A8468CB68144058
:101B40008A681C434B79144344EA43048460C26AA4
:101B5000097C4B1E22F47002DBB242EA0352C262DD
:101B600030BD0029816812BF41F0010149084900D8
:101B700081607047816841F008018160704780682A
:101B8000C00806E0816841F0040181607047806808
:101B9000800800F00100704770B500F023F81F24A2
:101BA000072A07DA521E02EB8202436B00F014F898
:101BB000416370BD0C2A07DCD21F02EB8202036B6B
:101BC00000F00AF8016370BD0D3A02EB8202C36AAD
:101BD00000F002F8C16270BD944023EA0404914011
:101BE0002143704707240A290BDBA1F10A0505EB05
:101BF0004505C668AC4026EA0404AB402343C360F5
:101C0000704701EB41050669AC4026EA0404AB408D
:101C1000234303617047084920B1086840F400007D
:101C2000086070470A6822F400020A6070470000EA
:101C3000FFFEF0FFFDF7F1FF0824014070470000B0
:101C400001464A0001F0FC0002F002021043C1F319
:101C50004001084370472DE9F84FDFF8C064C2B077
:101C60007468B568804600F0AFFBF8282DD1FFF707
:101C70005AFBDFF8AC140860404600F0B6FB471C86
:101C80000078102800F01E82202800F0BE81212854
:101C900000F0B381302800F08981312800F06F8195
:101CA000322800F04481332800F03581342800F0D8
:101CB0001281402800F0FD80412841D0502837D0C3
:101CC0005F282DD0602811D0902840F01D823978EF
:101CD000012948F202091BD020D3032901D006D3E1
:101CE0001CE0D7F8010000F00FFCB8B1F0E0787804
:101CF00000F0FAFB90B1787800F0E7FB009078787C
:101D000000F0F2FB014601A800F01CFC2422D4E103
:101D10000DF10101684600F0CFFB6CE14946F5E1A9
:101D200000220021404600F00EFB00F04CFCF0E1E8
:101D300000F05AFC08B900F0CBB800F05DFC58E1A7
:101D40000D2101A800F06AFCFEF7C7FB8146FEF7F3
:101D5000CAFB8246307828B100213170019102918E
:101D6000039152E0002C48BF89F00049002D48BF84
:101D70008AF0004A50464946FFF754FADFF8A413A8
:101D800000F050FC009051464846FFF7DBF94FF059
:101D90007C51FFF745F981460098FFF705FB824625
:101DA0008B4600F0BDFECDE908015046594600F0D3
:101DB000B9FECDE906014FF08F4A4846FFF7F4FA25
:101DC000DDE90823FFF714FBFFF7E8FB5146FFF7B7
:101DD00027F9FFF783FA01904846FFF7E5FADDE9B6
:101DE0000623FFF705FBFFF7D9FB5146FFF718F96C
:101DF000FFF774FA0290CC49009800F013FCCB492D
:101E0000FFF70EF9FFF76AFA03903868FFF788F9D1
:101E1000FFF7CAFA0022C64BFFF7EAFA0022C54BC9
:101E2000FFF7E6FAFFF7BAFB8146B868FFF778F9E3
:101E30004FF05E51FFF7F4F8BF49FFF7F1F8824623
:101E400048465146FFF7EEF9074648465146FFF728
:101E500079F9814600F095FE8346384600F091FE00
:101E600082465846FFF73AFA83465046FFF736FA5D
:101E70005946FEF7A1FB3846002100F099FE02D03A
:101E8000FFF72CFA04464846002100F091FE02D0EC
:101E9000FFF724FA0546FEF7AFFB00289DF8101067
:101EA00014BF0020042008438DF810000D2201A962
:101EB00004E17968386800F051FE48B979683868FB
:101EC000FEF77AFB386800B10446786800B1054631
:101ED0000022002195E03878002840F01581032188
:101EE0008DF800108DF8011000F074FFFFF7A8FEC8
:101EF0008DF8020000F06BFFFFF7A2FE8DF80300E3
:101F000000F06BFFFFF79CFE9DF801208DF80400A8
:101F1000921C92B2D1E000F081FF009001F077F8BE
:101F20000099006941EA800100910422C5E0402146
:101F3000684600F073FB0027F8B201F0EAF90004EC
:101F40004DF827007F1C042FF6D300F040FF00045B
:101F5000FFF7E6F8FFF788FC089000F03BFF00046D
:101F6000FFF7DEF8FFF780FC099000F036FF000471
:101F7000FFF7D6F8FFF778FC0A9040229DE0092190
:101F8000684600F04BFBFEF7A2FA0090FEF7A2FABB
:101F90000190FEF731FB00289DF8081014BF0020C7
:101FA000042008438DF80800092286E000208DF8FF
:101FB000010001F0EDF901289DF8011018BF002083
:101FC00008438DF8010001F0F6F900B104209DF8F6
:101FD000011008438DF8010001F0E9F900289DF88F
:101FE000012014BF0221002111438DF8011001F0DE
:101FF000CBF98DF8000002225FE05048504902689A
:1020000092B2404600F09FF983E04FF43442CDF89D
:10201000012000218DF800108DF8051004228DF8A4
:10202000062080210DF10700FEF71EFF02208DF82B
:102030008700802122A800F0F1FA0020CDF80B00E3
:10204000CDF813004FF42A414FF41340CDF83B0074
:10205000CDF807104FF4AA40CDF837004FF4F04206
:102060004FF49640CDF84300CDF8172022A8CDF8C4
:102070002B20CDF827202292426002614FF4705E3F
:102080003049314B4FF434574FF4485CCDF80FE0F2
:10209000CDF81B10CDF81FE0CDF82330CDF82FE0A0
:1020A000CDF83370CDF83FE0C0F808C0C76041619B
:1020B000C0F818C0C3614FF484726946404600F00E
:1020C00042F926E0387801281ED1204F0C223946EB
:1020D000684601F051FAB889ADF80C001C22F88965
:1020E000ADF80E0069463869049078690590B869C2
:1020F0000690404600F027F902224FF4967141F213
:102100007070FFF754FC04E04FF40041404600F0CB
:1021100011F9B560746043B0BDE8F08F5400002041
:102120004C0D002000006C43DB0F49400000344B95
:1021300000408F400000F03E0000EC42FC490008E7
:102140008C4600080088FFFF003B0100040D0020C2
:102150002DE9F0410446884616461AE0042520463B
:1021600000F03AF921680A78502A14BF02210321AD
:10217000A28B0818824249D02D04A07F7840A07716
:10218000A08B411CA18322681754A06980B205432B
:10219000A5613046461EB0B118F8017BA5692D0C2B
:1021A000290608D4A08B80B9102F12BF502FA0771A
:1021B0004FF48035E1D0A06940F01000A061BDE887
:1021C000F041FFF7A5B8BDE8F081681E03282AD8C2
:1021D000DFE800F003030D02C1E720680178502911
:1021E0000ABF012D4FF440354FF40035C5E72046B6
:1021F00000F0F2F8A28BA18A10188142AEDAA06931
:1022000040F02000A0610021A183D8E7A07F874291
:1022100003D0A16941F04001A1610021A06940F013
:102220008000A061F0E70020A083CCE780B50168C2
:1022300000291CBF818A002907D08268002A1CBFA0
:10224000C168002901D0016909B9002002BD00213F
:1022500081618183817702499047012002BD00009E
:102260005121000838B550238DF800300424148023
:1022700081F050059570002314886C4404F8011C0B
:102280001288C4686946A04731BDF8B50C461546AA
:102290001E46C28A2388571EF1188F42BCBF561EA5
:1022A000F61AC768B2B22946B8472088301820808D
:1022B000002005E082B2A178AB5C5940A170401CBF
:1022C00081B2B2B29142F5D3B0B2F2BD7CB50D4647
:1022D00004462888C11EADF800100123E6680222DA
:1022E00069462046B047A978BDF80000414081EA20
:1022F0001021A9702B88E6680122A91C2046B0474E
:1023000029882269491C204690472888401C76BDB0
:102310007CB5154604461E466A46FFF7A3FF3346C2
:102320002A4669462046FFF7B0FF69462046FFF778
:10233000CDFF76BD02B50021816102236A460321EB
:10234000FFF7E6FF02BD1346002282610A46022122
:10235000DEE77CB50446FEF7DFFFA06910F0700FE2
:1023600006D0A16989B22046FFF7E4FF002076BDC0
:10237000A0690106FAD5204600F026F8002818BF0B
:1023800001281FD1A07F8DF800000021A161204607
:1023900000F022F82168E6680546087850280CBF4E
:1023A00003200220451900232A462046B047E6684C
:1023B0002B46012269462046B0472269691C204607
:1023C0009047D3E7012076BD00680178502901D1FC
:1023D000C07870478078704700680178502902D132
:1023E000B0F80100704740787047006801785029C4
:1023F00001D1001D7047C01C7047000010B5FFE7F9
:102400004E4C0A21201D00F009F94FF4C8714C48C8
:1024100000F004F92046BDE81040022100F0FEB8AB
:1024200070B530F070630C460ED0100018BF002C51
:102430000AD00021424D28264E43A85930F0706042
:1024400004D0491C0A29F6DB002070BDAB5135448D
:1024500020216A62281DFEF707FD20222146281D43
:1024600001F096F8012070BDF8B5FEF75CFF642816
:1024700021D3324C324D00202080002728267E4375
:10248000A85930F070601EBFA819406A00280FD00C
:10249000804720B161786218491C17716170A95991
:1024A00021F0706141EA0061A95122781043207047
:1024B0007F1C0A2FE2DBF1BD204A08B113780370BC
:1024C00009B150780870012070471C494B78984238
:1024D00003D2084401790A2901DB00207047282033
:1024E000174A41435058704714494B78984203D2D9
:1024F000084401790A2901DB002070472820104A8E
:1025000041435018001D704730B530F0706011D055
:1025100000210B4A2824CBB26343D55825F07065BF
:10252000A84204D0491CCBB20A2BF4DB02E0D05005
:10253000012030BD002030BD00000000200D002033
:10254000400A00205FEA000C11F8012B00F8012B73
:1025500012B111F8012BF9E76046704780B5ADF86C
:1025600000108DF802308DF803206946FEF786F9D9
:1025700001BD000010B5032304224FF48051204810
:10258000204CFFF7EBFF00F029F84FF400702061BA
:102590001C211D4C201D00F041F85A2001212082F1
:1025A000618209221AA1201D00F0E6FF00201749D0
:1025B00051F8202004EB8003401C03285A61F7DB0C
:1025C000FF20207010BD10B50E4C00F007F84FF43E
:1025D00000720D492261FF20087010BD03231422F0
:1025E0004FF400712046B9E707480178FF2901D070
:1025F00001207047002070470348007870470000B2
:102600000008014000100140000D0020E8F7FF1F06
:10261000726566206261736500000000002200F0B0
:10262000C7BF00004FF0FF0C1CEAD0531DBF1CEACF
:10263000D1526345624543E09B1A5FEACC7280EA5F
:10264000010C42EA01211CEA020C42EA0020421A73
:1026500038BF01EB420253F17E034FEA1121B2FB76
:10266000F1F001FB102260F3D63C4FEA0222B2FBEC
:10267000F1F001FB102260F3CE1C4FEA0222B2FB04
:10268000F1F006DDFF2B29DA5CEA500040EBC35085
:102690007047C3F1020301FB1022192B40EA4C01E1
:1026A0000CF0004C41F0807121DC21FA03F0C3F101
:1026B00020039940114371F1004250EB0C00704728
:1026C00063451ABF0CEAD152624512E080EA010C60
:1026D00000180CF0004C06D049181AD10CF0004C30
:1026E0004CF0FF407047C94208BF6FEA020C6046D9
:1026F0007047634506D1B2EB0C02F5D001F0004102
:10270000484070474A0212BF0846484000F0004067
:1027100070474AB90902B1FA81F2914043B19B185E
:10272000C00140F0004092E7C90141F0004152422F
:102730000002B0FA80F39840D31A88E72DE9F04DF3
:1027400004460D469046DFF84C03DFF84C13224652
:102750002B46FEF74DFE0F4627F00041CF4AD04BE7
:1027600000F040FF064657D2CE4B07F000410B4326
:102770000022394600F050FF01F076F85FEA000AC7
:1027800047D001F08DF80022C74BFEF731FE064618
:102790000F464FF0A040C54932463B46FEF728FEA3
:1027A00022462B4600F038FF04460D464FF0C0404D
:1027B000BF4932463B46FEF71BFE22462B4600F041
:1027C0002BFF04460D464FF00050BA4932463B46B7
:1027D000FEF70EFE22462B4600F01EFF04460D4675
:1027E0000020B54932463B46FEF702FE22462B4604
:1027F00000F012FF04460D464FF00050AF4932463C
:102800003B46FEF7F5FD22462B4600F005FF044649
:102810000D460AF0030099E068004015401C08D1FD
:10282000290340F032814FF0FF306FF00041BDE8E6
:10283000F08D24F0000035F0004108BF002805D1DC
:10284000B8F1000F00F022819D4D1FE13046954BFD
:1028500007F0004639460022334300F0DDFE0F4604
:102860004900064641EAD0714000002908BF00280F
:1028700017D040F23342A2EB5150352804DB06F06A
:10288000000607F000470CE0202803DD2038C74091
:10289000874000E001D1002603E00028C4BFC64005
:1028A000864026F0000037F0004108BF002847D0DE
:1028B00000207D4932463B46FEF79AFD82468B4614
:1028C0004FF0A040794952465B46FEF791FD224603
:1028D0002B4600F0A1FE04460D464FF0C04074495F
:1028E00052465B46FEF784FD22462B4600F094FEDE
:1028F00004460D464FF000506E4952465B46FEF7C7
:1029000077FD22462B4600F087FE04460D46002048
:10291000694952465B46FEF76BFD22462B4600F0A6
:102920007BFE04460D464FF00050644952465B461C
:10293000FEF75EFD22462B4600F06EFE04460D4675
:102940003046394600F090FF00F0030025F00041CA
:102950000029804405D500224FF00043101B63EB93
:10296000010100225FF0795304D54FF00047921A1D
:1029700067EB0303994208F0010A05DABAF1000F88
:102980007BD000244E4D78E022462B462046294637
:10299000FEF72EFDBAF1000F06460F4631D049482A
:1029A000494932463B46FEF723FD484A484B00F072
:1029B00033FE32463B46FEF71BFD464A464B00F0CF
:1029C0002BFE32463B46FEF713FD444A444B00F0D3
:1029D00023FE32463B46FEF70BFD424A424B00F0D7
:1029E0001BFE32463B46FEF703FD6FF051023F4BA4
:1029F00000F012FE32463B46FEF7FAFC0022304B56
:102A000037E032463B4620462946FEF7F1FC824637
:102A10008B463748374932463B46FEF7E9FC364A93
:102A2000364B00F0F9FD32463B46FEF7E1FC344AF6
:102A3000344B00F0F1FD32463B46FEF7D9FC324AFA
:102A4000324B00F0E9FD32463B46FEF7D1FC304AFE
:102A5000304B00F0E1FD32463B46FEF7C9FC2E4A02
:102A60002E4B00F0D9FD52465B46FEF7C1FC2246D4
:102A70002B4600F0D1FD04460D465FEA887004D570
:102A800085F000412046BDE8F08D20462946BDE88E
:102A9000F08D000083C8C96D305FE43F0000A0FFE7
:102AA000FFFFDF410000E03F0000303EFB21B9C1E5
:102AB000B41011C026A651BE5C14D3BC9A833BBB94
:102AC0000000F03F09260A1039BA213E3BA861C632
:102AD000F97D92BE63AC30909F01FA3EF6FB511631
:102AE0006CC156BFB10255555555A53FFFFFDFBF1D
:102AF000B08F2FC310D8E53D8F0C73A1E1E55ABE0E
:102B00004DADE44FE31DC73E3EE3B519A0012ABF1A
:102B1000FAF010111111813F425555555555C5BF59
:102B200001220BE6002209E620490020087001205E
:102B3000704710B500F082F91C4C60B1207858B98C
:102B400001212170FEF7EFFB00210020FDF734FD8D
:102B5000FDF736FD00E02070012010BD134A137808
:102B6000012B02D0022B06D003E00028D8BF002999
:102B700005DC00207047002858BF0029F9D5012046
:102B8000704780B509490A78012A02D0022A05D087
:102B900002BD0021FEF7B0FA04D302BD0021FEF70A
:102BA00089FBFAD2002002BD00000000500D002079
:102BB000884204D040EA010C1CEB0C0F70474FEA2E
:102BC000400C1CF1807F98BF804270477FB5012187
:102BD0000120FDF711FE01212020FDF70DFE03204D
:102BE0004FF4E0418DF80600ADF8041048228DF84E
:102BF000072001A97B487C4C0FF27D16FDF73EFEB5
:102C00000E210320FDF7C5FE0D210320FDF7C1FEB7
:102C10000C210320FDF7BDFE002110228DF80C10C1
:102C20008DF80D2001214FF480428DF80E10029294
:102C300002A8FEF769F94FF400500290002502A89F
:102C4000FEF762F94FF48050029002A8FEF75CF99B
:102C500028218DF80010012203218DF801208DF824
:102C600002108DF803206846FEF797F930212046C0
:102C7000FFF7D4FC1420684320443146056430300B
:102C800000F020FE6D1C032DF4D3012004B070BDB4
:102C9000F8B50025544C14216943214401F130005A
:102CA000C046C0466D1C032DF5D3FEF73FFB024620
:102CB0000023EFF3108572B600271E010121A05DED
:102CC000B940084212D0A01900EB8700D0F804C028
:102CD00094450BD2A2EB0C0CDFF810E1F44505D3C0
:102CE00014F806C02CEA0101A15542607F1C032F95
:102CF000E4D385F310885B1C032BDCD3F1BD491EA4
:102D0000394B8941142250431A18C90F02F130007F
:102D100000F0F6BD10B54FF48040FEF726F9344CB4
:102D200048B14FF48040FEF72BF9216801F480414F
:102D30000020FFF7E4FF4FF40050FEF716F948B10A
:102D40004FF40050FEF71CF9216801F400510120F6
:102D5000FFF7D5FF4FF48050FEF707F950B14FF45D
:102D60008050FEF70DF92168BDE8104001F4805154
:102D70000220C4E710BD000010B502291A4B16D07E
:102D80000C2902D0502909D010BD016909015C5CF1
:102D900044F0010400F014F84A6010BD0169090113
:102DA0005C5C44F0020400F00BF88A6010BD01691D
:102DB00009015C5C44F0040400F002F8CA6010BD34
:102DC0005C54006903EB00117047FFE660E70648BA
:102DD000007870470448007C7047034890F8200052
:102DE0007047000000140140D00B0020A0F7030042
:102DF0000814014080B501210820FDF7FDFC42F2D6
:102E00002001ADF80010012248218DF803108DF843
:102E1000022069460748FDF731FD01BD06490868F3
:102E20000968400900F001008A0448BF40F0020030
:102E300070470000000C0140080C014080B5FFF70E
:102E4000EDFF00F00300032801D0012002BD0020A7
:102E500002BD000080B5ADF800108DF802308DF88D
:102E600003206946FDF70AFD01BD18B587B00A21A8
:102E700004A8FFF7D3FB68460021002200230024AA
:102E800080E81E00B321ADF814100492ADF81620AE
:102E9000604C2046FDF792FD04A92046FDF762FE36
:102EA0000221ADF8081060200122ADF80000ADF855
:102EB00002200021019120466946FDF7D6FE082137
:102EC0002046FDF797FF01212046FDF76BFF524C8E
:102ED00003231022802100F02AF8012280212046BD
:102EE000FDF729FD03230022042100F020F803232D
:102EF0000022022100F01BF803230022102100F021
:102F000016F80323002210214448454CFFF7A2FF86
:102F100000206070A070A061E06120701421201D6D
:102F2000FFF77CFB4FF0FF30606108B010BD20461A
:102F300090E7F8B53A4E3B4D71783B480A2400299A
:102F40003CD0022943D04AD20168890747D5FEF711
:102F500018FA32780146104660432B18B07838B919
:102F6000998040F6B837B9428941C90F19720EE00D
:102F7000B3F904C01F88ACEB0101D6F818C065296D
:102F8000A6BF2CEA0707D98047EA0C07B761521C95
:102F90003270D2B2042A20D300213170234918B9EB
:102FA00011200880012002E000220A800020B07079
:102FB00002207070FEF7B7F9F06110E03278A91CBA
:102FC0006243895AC9B2FEF7CDF9012006E0FEF747
:102FD000AAF9F169401A152801D300207070B1696F
:102FE0000022FF2302F1080041FA00F7F80709D593
:102FF00005F1080704FB02FE17F80E0010B90127BF
:103000009740BB43521C042AECD37361F1BD0848BE
:10301000704700000004004000100140000801401B
:10302000E00C00202C000020002801403804004063
:10303000E40C002080B5ADF800108DF802308DF85A
:1030400003206946FDF71AFC01BD14225043C84A0B
:10305000131801299988105808BFFDF768BCFDF7BF
:1030600068BC1CB50446042C15DA0021FFF7EDFFFF
:10307000102100228DF805108DF804208DF806200F
:103080001421BB4A4C431119012308698340009362
:103090006846FDF739FF13BD042800DB7047F8B51B
:1030A000B44CB54D267814235E4300220021AC19A0
:1030B00004E004EB4107491CBE88B21803FB00F68C
:1030C0002E44B678B142F4DB81B1B2FBF1F0400896
:1030D000FEF798FA0022A94BFEF7A2FA02460B4629
:1030E0004FF02040A649FEF783F900E00020FEF7EC
:1030F00055FAFEF7B9FB2061F1BD2DE9FF419D4E68
:103100009B4C327814256A4322440121176901FA45
:1031100007F73846FDF729FF002849D03846FDF764
:103120002FFF3078DFF85C82684320448189806813
:10313000FDF7F6FB01281CD101211020FDF766FBED
:103140004EF66021ADF8041047220021ADF80610BC
:10315000ADF80210ADF8002069464046FDF702FDCB
:10316000002140468184C04601214046FDF71AFEF9
:103170001EE000214046FDF715FE31787E4F781C99
:103180006943445C042CA8BF00244046FDF749FE77
:1031900031784D43791901EB4403641C9880087819
:1031A000401C08704C7088780428BCBF401C887094
:1031B000BDE8FF812DE9FC426E4D6F4C2878042854
:1031C00003DB002129700120207014262F7806FBD4
:1031D00007F914F80900401E032800F29680DFE882
:1031E00000F002325B80042F20DA01213846FFF71D
:1031F0002CFF1420FDF776FE00213846FFF725FF4F
:103200005B4848440769F9B20420FDF7C2FB00217E
:103210008DF80410102201218DF805208DF806107C
:1032200001FA07F700976846FDF76EFE28787043AD
:10323000215C491C2154FEF776F82A7804F10C0130
:10324000564388515FE0FEF76EF82B7804F10C02CC
:103250007343D158401A332855D300214948FDF70C
:10326000A1FD2878FFF7FDFEFEF75DF82F787E437D
:1032700004F10C02A319905108210020A0557F1CD5
:10328000181DFDF7F1FDF8B20428A8BF00272F7024
:1032900000220021002021E004EB0901887890B38E
:1032A0000428A4BF042088703846FFF7F5FE14F800
:1032B0000900401C04F80900032197FBF1F000EB22
:1032C0004000381A02280CBF1022002201280CBF2F
:1032D0001021002100280CBF1020002000F0CAFBA4
:1032E00011E03846FFF7BDFEFEF71DF829784E4382
:1032F00004F10C03491C98510020A055CCB2042CB9
:10330000A8BF00212970BDE8F382012004F809005C
:10331000F9E710B50446042C01DB002010BDFFF7CF
:10332000BBFE1420144944430819006910BD38B588
:10333000002414210E4861434518A989A868012377
:103340002822FFF777FEA988286803231022FFF7B9
:1033500071FE0021E0B2FFF778FE641C042CE8DB6C
:10336000BDE83440FFE750210348FFF757B900009C
:10337000AC480008520D0020900C002000408F4007
:10338000707975400010004074480069C0B2704701
:1033900080B572484178C078014306D00421704856
:1033A000FDF7BEFA08B9012002BD022002BD6B483C
:1033B00090F903007047694890F90100704710B513
:1033C000664C6848A27912B1012A06D010BD0621C8
:1033D000FDF7C8FF0122A27110BD0168890711D550
:1033E000FDF7CFFF6279082304F1140100F0A7FB79
:1033F00020816079401CC1B20829A8BF00206071FB
:103400000020A07110BD1CB5012140F20120FDF784
:10341000F3F94021ADF80010012200218DF80310CE
:103420008DF80220694650484C4CFDF727FA0020E1
:10343000A0716071FFF7C3FF60790028FAD1012104
:103440004020FDF7D9F95C2000F017F848228DF8EC
:10345000032069464248FDF711FA01210820FDF7D3
:10346000CBF94FF4407000F008F828228DF80320C3
:1034700069463E48FDF702FA13BD0121ADF8000090
:103480008DF802107047F8B5FFF799FF334CFDF740
:103490004AFFE168401A40F6B832904229D3FDF75E
:1034A00042FFE06041F63D5022894243920A42F6D3
:1034B000E0618A4238BF00200DD344F2A11082425D
:1034C00028BF642007D22A498A18642042434FF457
:1034D0009653B2FBF3F00F2820611AD2FFF758FF82
:1034E000012816D02078401CC1B2FA29A8BFFA20C2
:1034F0002070A578267960781E4F68B13968C805B4
:103500000FD4FDF710FF401B64280DD3002060701E
:103510000AE002212170ECE73868C10504D50120DA
:103520006070FDF700FF0546E07850B13968880506
:103530000CD4FDF7F8FE801BC8280AD30020E070E9
:1035400007E03868810504D50120E070FDF7EBFE47
:1035500006462671A570F1BD0000000000000020A5
:10356000001801400024014000080140000C014007
:1035700020D1FFFF080C01404AB1000011F8013BC7
:10358000521E00F8013B1CBF11F8013BF8E77047E1
:1035900001B55AB111F8013B521E00F8013B03B1CD
:1035A000F8D111001CBF0022FEF72EFA01BD000069
:1035B00000B500BF130096469446103928BFA0E816
:1035C0000C50FAD85FEA417C28BF0CC048BF40F8D5
:1035D000042BC90728BF20F8022B48BF00F8012B95
:1035E00000BD000041EA030C50EA4C0C52EA0C0CFE
:1035F0004FF4001C09D307D01CEB410F9CBF1CEB00
:10360000430F8B4208BF824270471CEB430FFBD82D
:10361000994208BF9042704770B491EA030F4FF08F
:10362000004540F1B7806B40841A71EB030604D269
:103630006E40001BB141121973414FF4001C1CEB8A
:10364000410F34BF7CEB430683E00C0DA4EB135613
:10365000362E00F37C80012E45EAC32341DC43EA89
:10366000525312BFD20292025B08240545EAC121DF
:1036700041EA5051D2EBC020994125D407D1B0FA8C
:1036800080F610FA06F162D00020203608E0B1FA88
:1036900081F6B140C6F1200220FA02F21143B04097
:1036A0004FEAF474B4EB465434F001064FEA740464
:1036B0000AD8D6F50016760D04F00044F04061FA01
:1036C00006F25040F1404840C00A40EA415021F023
:1036D000004128BF5FEA500550F1000044EBD121C2
:1036E00035E0DB0A45EAC121C90AB6F120050EDD45
:1036F00042EA0242120CC5F1200603FA06F6EB403C
:1037000042EA06056D42984161F100010DE062FA5E
:1037100006F5F240554063FA06FC82EA0C02F340DB
:103720005A406D42904161EB030111F4801F05D1B5
:10373000641E620502D06D004041494121F48011B0
:10374000430875F1004350F1000041EB045170BC97
:1037500070471CEB410F15D223F0004352EA430699
:103760000BD04FEA4C0CBCEB410F04D80C0D661E7D
:10377000342EB7DDEBE7801A994150EA410608BFC5
:103780000021E4E708BF1CEB430F28BF6FF00001E6
:10379000DDE70000841A71EB030603D2001BB14180
:1037A000121973414FF4001C1CEB410F34BF7CEB2A
:1037B000430442E00C0DA4EB1356352E4FDC45EAD2
:1037C000C323DB0A45EAC121C912B6F120050DDD8C
:1037D00063FA05F6EB4086EA0305124218BF45F08E
:1037E0000105C01851F100010CD213E062FA06F590
:1037F000F2405540F3415A40B340F3405A408018DC
:10380000594107D349085FEA30005FEA350528BF10
:1038100045F0010501F58011420875F1004250F1B3
:10382000000041EB04514E0016F5001F70BC38BF7C
:1038300070470020090D090570471CEB410F10D29D
:1038400052EA43060BD0BCEB410F05D80C0DAB433D
:10385000661E342EB6DD02E0AB438018594170BCC1
:10386000704770BC70470000C1F30A5340F21E421B
:10387000D31A0CDDCA0283F3070342EA505242F026
:103880000042DA4002EBE17282EAE17070476FEACF
:10389000E17203F2E13008B182F0004070470000AD
:1038A00010F0004160B148BF4042B0FA80F2904051
:1038B000D21CC2F5846241EA025202EBD0214005DB
:1038C0007047000038B504460D4600F002F8E56088
:1038D00031BD0021017041704160816070478B1AD9
:1038E000984224BF5118814201D301207047002023
:1038F0007047012902D10022426042700170704776
:103900002DE9F04106460C46FDF710FDB768054667
:103910003078EF1B032842F2C4284FD8DFE800F0CC
:1039200002060F2F002C4BD0012143E0002C40D188
:10393000C822414600F04AF8002838D139E0002C6E
:1039400037D0707838B9C82241F2F81100F03EF84B
:1039500000282ED011E000F036F810B17068400059
:103960000AE0C82240F2726100F030F8002820D04E
:103970007068400040F00100706003211AE0C4B993
:1039800000F021F860B17078411C072871700EDBDF
:10399000F36818000DD071682A463046984708E051
:1039A000C822414600F012F818B1002070700221C0
:1039B00000E000213046FFF79CFF01E0002030705E
:1039C000B560BDE8F081C8224FF40C71384686E737
:1039D00080B5ADF800108DF802308DF803206946EF
:1039E000FCF74CFF01BD10B507214E4A4FF4807320
:1039F00001248C402042136000F00FF803D000F047
:103A000017F8536002E0536000F012F800F005F878
:103A1000491E4CB2002CEBD510BD00BF00BF00BF4B
:103A200000BF00BF00BF00BF00BF00BF00BF7047A6
:103A300000BF00BF00BF00BF00BF00BF00BF00BF8E
:103A400000BF00BF00BF00BF00BF00BF00BF00BF7E
:103A500000BF00BF00BF00BF00BF00BF00BF00BF6E
:103A600000BF00BF00BF00BF00BF00BF70471420F1
:103A7000FDF738BA38B50023B0F5807F3CBFB1F50B
:103A8000807FB2F5807F1DD2274C256885421CBF00
:103A900020600123606888421CBF61600123A06828
:103AA000904218BFA26000D163B16068C0B2FFF756
:103AB0009AFF2168C8B2FFF796FFA068BDE83240C0
:103AC000C0B290E731BD10B5184C0323142200F0AA
:103AD0002FF84FF4807262616420FDF703FA1248F8
:103AE0004FF0FF31816041600160002200F024F856
:103AF000BDE81040BBE710B50C4C0323102200F0CA
:103B000017F84FF4807262610021002200F015F86E
:103B10001420FDF7E7F9044800218160416001604D
:103B200010BD000010100140300D002000100140B9
:103B30004FF4807120464BE7002100209AE730B512
:103B400051F8135031F8124000F004F8B0FBF3F0D4
:103B500080B230BD2D1B451941F8135021F81200D9
:103B600051F8130070470000DFF83C13884201D180
:103B700001207047DFF83413884201D102207047DA
:103B8000DFF82C13884201D1032070470CE0012894
:103B900004D009D3032805D002D305E000207047E4
:103BA00001207047022070474FF0FF30704710B57A
:103BB00004460022802100F05AFA204600F08CF9D9
:103BC0002046FFF7D1FF10F1010F11D00128DFF8D7
:103BD000E41205D006D3032805D003D2643102E0F5
:103BE000283100E00021BDE81040084600F070BA1E
:103BF00010BDF0B58FB004460D46FFF7B5FF064681
:103C000016F1010F08BF002057D0002203921021A7
:103C10008022059202914FF4805209920021221DC8
:103C2000012E04910691079108910A91009204D007
:103C300012D3032E07D003D30EE0DFF87C7204E02A
:103C4000DFF8787201E0DFF86C72384600F040FA75
:103C50006946384600F089FA0BA800F0D9F90B95AF
:103C60000BA9204600F07CF900202080012240F2C0
:103C70002551204600F0E2F901228021204600F083
:103C8000F6F90121204600F0CFF9012E09D00AD320
:103C9000032E01D003D306E04FF4887005E088209E
:103CA00003E0002001E06FF08700DFF81412084401
:103CB000803000224260026001200FB0F0BD70B57C
:103CC0001D46B5F5007F0C4616460AD2C5F50071B3
:103CD000B14238BF0E46FFF747FF014611F1010F11
:103CE00001D1002070BD0129DFF8D82113D014D3F1
:103CF000032901D00DD310E010680028FCD1012960
:103D000011D00FD3032901D009D30BE04FF4806009
:103D100009E06432F0E72832EEE70422ECE74FF4E2
:103D2000007000E06848694B184432462146284438
:103D3000FFF722FC304670BDF8B50C46FFF714FFC4
:103D4000054615F1010F40D0012D614E0AD00CD36C
:103D5000032D01D003D308E006F1180706E006F1B1
:103D60007C0703E006F1400700E000270021384609
:103D700000F017FA012D09D00BD3032D01D002D387
:103D800007E0202006E04FF0007003E04FF4005001
:103D900000E000203060012D7C600AD00BD3032DA1
:103DA00001D003D307E04FF4806005E04FF40070CA
:103DB00002E0002000E0444844490844F860012142
:103DC0003846BDE8F44000F0ECB9F1BD10B50C4642
:103DD000FFF7CAFE10F1010F06D0210008BF0FF255
:103DE000990400F002F80C5010BD012808D009D346
:103DF000032801D002D305E0082005E0042003E0F9
:103E0000002001E06FF003003249704710B5264CE6
:103E100000F020F830B12F4AA188136801F0FF01AB
:103E2000012098470BE010B5204C00F013F830B19A
:103E3000284AA188536801F0FF0102209847082111
:103E4000204600F01FF9012803D14FF6F7702080BB
:103E5000A18810BD40F22551204600F01AB910B5D6
:103E6000134CFFF7F7FF30B11A4AA188936801F0AD
:103E7000FF0103209847E2E770B50C46FFF787FE85
:103E8000882148430E4A104400F180010A68531CFF
:103E90009D1103EB5566F6114D68A3EBC613AB42BB
:103EA0001CBF84540B6070BD0038014000440040CA
:103EB000004800401C0002404400024080000240D4
:103EC000A80800202000024000FEFFFF8400002020
:103ED000040002407800002080B5484988420BD198
:103EE00001214FF48040FCF79BFCBDE80440002119
:103EF0004FF48040FCF794BC4149884208D101212D
:103F00004FF40030FCF796FC00214FF4003022E023
:103F10003C49884208D101214FF48020FCF78AFCFB
:103F200000214FF4802016E03749884208D1012152
:103F30004FF40020FCF77EFC00214FF400200AE043
:103F4000324988420BD101214FF48010FCF772FCFA
:103F500000214FF48010BDE80440FCF76BBC01BDAC
:103F600030B5044685B00D46228AE8884CF6FF71CC
:103F70000A40024322824EF6F311A289A8880A4021
:103F80002989024368890A430243A2814FF6FF410F
:103F9000A28AA8890A400243A2826846FCF7EAFB8B
:103FA00016492A688C420CBF039902991920A389EB
:103FB000A589414318044CBF52009200B1FBF2F1B5
:103FC0006422B1FBF2F2120113096FF0630000FBEF
:103FD0000311280407D5C90032316420B1FBF0F089
:103FE00000F0070006E0090132316420B1FBF0F077
:103FF00000F00F000243228105B030BD00380140BF
:104000000044004000480040004C00400050004088
:104010004FF41651016000228280C28000210C22E0
:10402000018142818181704721B1818941F4005130
:104030008181704782894DF6FF7120E010B50B0633
:104040005B0F012401F01F01012B04FA01F108BFED
:104050000C3003D0022B0CBF10301430002A19BFD3
:1040600002681143036823EA0101016010BD002AC0
:10407000828A14BF114322EA0101818270470A40FB
:10408000828170470246002012880A4218BF012030
:10409000704770B502460C060020640F012601F03F
:1040A0001F03012C06FA03F308BF948905D0022CE4
:1040B00002D1158A2B4001E0948A2340090A128814
:1040C00006FA01F11140002B1CBF0029012070BD30
:1040D00002684FF6FE710A400260002303604360ED
:1040E0008360C3603549364B98421DD0354A9042B3
:1040F00021D0354A904225D0344A904229D0344AC2
:1041000090422DD0334A904203D1086840F47000A9
:1041100029E0314A904203D1086840F0706022E003
:104120002E4A2F49904203D1086840F00F001AE050
:104130002C4A904203D1086840F0F00013E02A4A6C
:10414000904203D1086840F470600CE0274A904226
:1041500003D1086840F4704005E0254A904203D13D
:10416000086840F470200860704710B504688B68D8
:104170000A6A6FF30E141C430B6914434A691C430B
:104180008B691443CA691C434B6A14438A6A1C43F3
:1041900014430460CB6843600A6882604968C16068
:1041A00010BD21B1016841F0010101607047026852
:1041B0004FF6FE710A4002607047000004000240A2
:1041C000080002401C00024030000240440002404F
:1041D000580002406C000240800002400804024087
:1041E000040402401C040240300402404404024023
:1041F0005804024080B5ADF800108DF802308DF8FB
:1042000003206946FCF73AFB01BD30B585B04FF499
:104210000040FCF7AAFA01210120FCF7E3FA012192
:1042200044F21C60FCF7E8FA01214FF00210FCF7A1
:10423000EDFA01212020FCF7DFFA01214FF4802064
:10424000FCF7E4FA01210120FCF7D6FA01216348CA
:10425000634C644DFCF774FB01216348FCF770FB71
:1042600001216248FCF76CFB032318224FF4007114
:1042700000F0D3F80323042200F0CDF80323182222
:10428000042100F0CAF803230422082100F0C5F835
:10429000574C0323182200F0BEF8032304224FF4E6
:1042A000006100F0BAF84FF4A060FCF771FE012045
:1042B0008DF8030000224F484F49504B504C41604D
:1042C0001A70826007220260FCF7EEFD03208DF871
:1042D00001002521012200F097F803208DF801004C
:1042E0002621022200F090F803208DF801002721FA
:1042F0008DF802008DF800106846FCF74EFE17217D
:104300008DF80010012202218DF801208DF8021095
:104310008DF803206846FCF740FE4FF460220292BD
:1043200000210091ADF80410039101228DF81020B6
:1043300069462046FDF7F6FB69462846FDF7F2FB85
:1043400001212046FDF70DFC01212846FDF709FC5F
:104350000120FDF760FC2046FDF70CFC2846FDF728
:1043600009FC2046FDF70BFC0028FAD12846FDF792
:1043700006FC0028F5D12046FDF704FC2846FDF791
:1043800001FC2046FDF703FC0028FAD12846FDF782
:10439000FEFB0028F5D100F043F81A4C012304225B
:1043A000402100F03AF801230422802100F035F882
:1043B00080212046FCF7B4FA074D400028704021C8
:1043C0002046FCF7ADFA2978084340F00600287033
:1043D00005B0012030BD0000510D0020000230006A
:1043E0000008014000280140000C1A0010001400D1
:1043F0000010014010E000E03F19010023ED00E053
:1044000000240140000C01408DF800108DF80220BE
:104410006846FCF7C2BD4FF480612046EAE6000022
:1044200000E00000DFF81000DFF81010DFF81020C7
:1044300001600260704700000420024023016745CC
:10444000AB89EFCD80B5FEF79FFF0A2801DA022085
:1044500002BD1E2801DA012002BD002002BD80B588
:10446000FCF761FF3B4A1168401A40F2E933984279
:1044700005D3BDE8044000210020FCF79DB801BD34
:1044800080B5FFF738FB344800F0ABF8C046C046B3
:1044900072B6FEE710B53148FCF742FF642403E032
:1044A0004FF47A70FCF71EFD2046441E0028F7D119
:1044B000FFF7ABFEFFF707FB4FF4E131284800F0B0
:1044C00074F800F098F8FDF7B1FEFEF79CFFFDF7D9
:1044D000E3F9FEF74FF8FEF7C8FCFEF776FCFCF7B1
:1044E0009CF8FBF736FEFBF782FF00210020FCF76B
:1044F00063F8FCF76FF8FEF77DFCFEF715FBFEF79F
:1045000016FFFDF77BFF174A18A11748FDF788FF34
:10451000FDF730FA00F07CF800F06DF8FDF719FFB8
:1045200018B100F068F8FDF796FBFEF7ACFFFEF758
:1045300000FBFDF74FFAFEF7FCFCFEF747FCFEF729
:1045400039FEFFF78CFFFCF77CF8FDF78DFF00F0DC
:1045500073F8E1E74C0D002000440040814400085E
:104560000048004045440008000102004C6F7720DD
:10457000626174746572792E000000001F48036A3E
:10458000002B00D1704780B58DF8001001226946DC
:10459000984701BD19480162704718484068FFF705
:1045A0008EBB16484068FFF7C7BB10B50446FFF73F
:1045B00020FBA8B111480021016200F1240210493A
:1045C0008160026044600F490F4A0161C2604FF48C
:1045D00000718182C18220460C49FFF7F7FB012060
:1045E00010BD10B504460021FFF7F0FB2046BDE8E2
:1045F0001040FFF7DCBA0148704700008406002035
:1046000095450008A34500089B4500087D45000826
:1046100080B5FCF719F901214FF40060FCF7F6F8BA
:104620004FF4C07000F00CF87F2000F010F8BDE8E7
:1046300002407F2000F021B87F2000F019B8000070
:1046400010490A6822F4C07210430860704781B0B4
:104650000021009100F07F000A490A68D209D201C6
:104660000092009A104300900098086001B07047D3
:10467000054900F07F0008607047034940F0800062
:1046800008607047042C0040002C0040500400508B
:104690000A0110FF023007536C616D7465630311EA
:1046A000001004300C536C616D77617265205344C7
:1046B000500510010620EC51B83E07209A99993E0A
:1046C00008203333333F09600A40065003191000B5
:1046D0000B310C0D50040E208FC2F53D0F208FC200
:1046E000F53D1020CDCC4C3D1120D80F493F500353
:1046F0001910010B310C0D50040E208FC2F53D0F27
:10470000208FC2F5BD1020CDCC4C3D1120DFEDAF88
:104710004050031910020B31140D50040E2058396B
:10472000343D0F200B24283E10200AD7A3BC1120B3
:104730008C2C9F4050031910030B31140D50040EA4
:10474000202B87163E0F207B14AE3D10200AD7A3E6
:10475000BC1120894EB84050031910040B31140DC0
:1047600050040E202B87163E0F207B14AEBD102068
:104770000AD7A3BC1120960A063F50031910050B57
:1047800031140D50040E205839343D0F200B2428CD
:10479000BE10200AD7A3BC1120378DA73F185001A7
:1047A0000D50020E206C09F9BC1120DB0F49401698
:1047B000500117601A50021E200AD7233C1B311CDF
:1047C0001CB5354A3549106840F001001060536847
:1047D00033480B4053600023146804401460116890
:1047E00021F4802111604FF41F01506820F4FE0075
:1047F0005060916000930193136843F48033136019
:10480000106800F4003001900098401C009001985E
:1048100018B90098B0F5A06FF2D11068400C00F004
:10482000010001900198012830D11E48016841F033
:104830001001016003689B089B000360016841F060
:10484000020101605068506051685160506840F446
:1048500080605060506820F47C105060506840F4D4
:10486000E8105060116841F080711160106881019A
:10487000FCD55068800880005060506840F002000D
:104880005060506800F00C000828FAD14FF000602A
:104890000549086013BD0000001002400000FFF849
:1048A000FFFFF6FE0020024008ED00E00018014086
:1048B0000004000000180140200000000500000076
:1048C00000180140000800000018014080000000AE
:1048D000070000000018014000100000001801400F
:1048E00000010000080000000018014000800000E6
:1048F00000180140000200000900000030B400254B
:1049000012E050F8042BD30744BF4A44521E091F3B
:10491000042942F8045BFAD213468C0744BF158081
:104920009B1CC90748BF1D7050F8041B0029E8D123
:1049300030BC704710B5074979441831064C7C44A7
:10494000163404E00A68081D114488470146A14254
:10495000F8D110BD0800000024000000A1FFFFFFF7
:10496000D00C0000840000200000000003C5FFFF01
:104970006401000084000000000000200120C04607
:10498000002801D0FFF7D6FFAFF300800020AFF37F
:104990000080FFF77FFD00F000F800F001B8000094
:1049A0000746384600F002F8FBE7000080B5AFF399
:1049B0000080024A11001820ABBEFBE7260002006F
:1049C0000548014603B4684680F30988AFF30080C8
:1049D000AFF30080FFF7D2FFA5EDF5FE0148804759
:1049E00001480047C1470008C14900087047FEE779
:1049F000FEE7FEE7FEE770477047704734010000AE
:104A0000FFF7FEBFFFF7FEBFFFF7FEBFFFF7FEBFDA
:104A1000FFF7FEBFFFF7FEBFFFF7FEBFFFF7FEBFCA
:104A2000FFF7FEBFFFF7FEBFFFF7FEBFFFF7FEBFBA
:104A3000FFF7FEBFFFF7FEBFFFF7FEBFFFF7FEBFAA
:104A4000FFF7FEBFFFF7FEBFFFF7FEBFFFF7FEBF9A
:104A5000FFF7FEBFFFF7FEBFFFF7FEBFFFF7FEBF8A
:104A6000FFF7FEBFFFF7FEBFFFF7FEBFFFF7FEBF7A
:104A7000FFF7FEBFFFF7FEBFFFF7FEBFFFF7FEBF6A
:104A8000FFF7FEBFFFF7FEBFFFF7FEBFFFF7FEBF5A
:104A9000FFF7FEBFFFF7FEBFFFF7FEBFFFF7FEBF4A
:104AA000FFF7FEBFFFF7FEBFFFF7FEBFFFF7FEBF3A
:104AB000FFF7FEBFFFF7FEBFFFF7FEBFFFF7FEBF2A
:104AC000FFF7FEBFFFF7FEBFFFF7FEBFFFF7FEBF1A
:104AD000FFF7FEBF0002D900060513000800010C15
:104AE000F80001020BF80001040EF800010804F9B7
:104AF000000001F5000008F9001B01020304010297
:104B000003040607080902040608793E0008793EF6
:064B10000008793E0008D8
:04000005080049C1E5
:00000001FF
